:040000000C942D0B24
:100004000C9400000C9400000C9400000C9400006C
:100014000C9400000C9400000C9400000C9400005C
:100024000C9400000C9400000C9400000C9400004C
:100034000C9400000C9400000C9400000C9400003C
:100044000C9400000C9400000C9400000C9400002C
:100054000C9400000C9400000C9400000C9400001C
:100064000C9400000507206000000000000000045C
:100074000404040400040A0A0A000000000A0A1F17
:100084000A1F0A0A041E050E140F040313080402AF
:1000940019180609050215091606040200000000D5
:1000A4000804020202040802040808080402000A00
:1000B400041F040A000004041F04040000000000DC
:1000C4000604020000001F000000000000000606F5
:1000D40000001008040201000E11191513110E047A
:1000E40006040404040E0E11100804021F1F080461
:1000F4000810110E080C0A091F08081F010F101020
:10010400110E0C02010F11110E1F1008040202023D
:100114000E11110E11110E0E11111E1008060006FB
:100124000600060600000606000604021008040283
:1001340004081000001F001F00000102040804024C
:10014400010E1110080400040E11101615150E0EE0
:100154001111111F11110F11110F11110F0E110196
:100164000101110E070911111109071F01010F01E6
:10017400011F1F0101070101010E11010119110ED7
:100184001111111F1111110E04040404040E1C0892
:1001940008080809061109050305091101010101EF
:1001A40001011F111B151111111111111315191131
:1001B400110E11111111110E0F11110F0101010E68
:1001C4001111111509160F11110F0509111E010145
:1001D4000E10100F1F040404040404111111111152
:1001E400110E11111111110A0411111115151B1100
:1001F40011110A040A111111110A040404041F1034
:10020400080402011F1C04040404041C0001020469
:1002140008100007040404040407040A1100000081
:10022400000000000000001F02040800000000009D
:10023400000E101E111E01010D1311110F00000EEE
:100244000101110E1010161911111E00000E111FBC
:10025400010E0C12020702020200001E111E100CF5
:1002640001010D131111110400060404040E080009
:100274000C080809060202120A060A1206040404FB
:1002840004040E00000B1515111100000D131111BB
:100294001100000E1111110E00000F110F010100C9
:1002A4000016191E101000000D1301010100000EAC
:1002B400010E100F0202070202120C0000111111AC
:1002C400191600001111110A040000111115150A64
:1002D4000000110A040A11000011111E100E000082
:1002E4001F0804021F08040402040408040404048C
:1002F40004040402040408040402021508000000B3
:10030400001F11111111111F000E206005030506B5
:100314000609080304040406030403030606060688
:100324000606060606060303060606070B08070864
:100334000706060807030607070A0708070807074A
:100344000707080B08080704030406060406070643
:100354000707050707030307030B07070707050735
:100364000507070A0707060403040608000000003F
:100374000000000000000000000000000003030370
:1003840003030003030000000000001B1B1B00000C
:1003940000000000000000000024243F12123F0966
:1003A400090000000000040E15050F1E14150E04AC
:1003B40000000000000000002700250015001700C1
:1003C400E800A800A400E400000000000000000011
:1003D400001C36360C5E73337E0000000000000300
:1003E40003030000000000000000000000040603F6
:1003F40003030303020604000000000102020606D0
:1004040006060203010000000002070205000000C6
:1004140000000000000000000004041F04040000A9
:1004240000000000000000000000000303020100BF
:1004340000000000000000000700000000000000B1
:10044400000000000000000303000000000000049E
:10045400040202020201010000000000000E1B1B46
:100464001B1B1B1B0E0000000000000C0E0F0D0CCC
:100474000C0C0C0000000000000E1B18180C0603E6
:100484001F0000000000000E1B180C18181B0E00A3
:100494000000000000181C1A1A193F181800000068
:1004A4000000001E06030F19181B0E0000000000B8
:1004B400000E1B030F1B1B1B0E0000000000001F7F
:1004C400180C0C060606060000000000000E1B1B9C
:1004D4000E1B1B1B0E0000000000000E1B1B1B1E2E
:1004E400181B0E00000000000000000303000003BE
:1004F40003000000000000000003030000030302E7
:10050400010000000000100C03030C1000000000A8
:100514000000000000001F001F0000000000000099
:100524000000010618180601000000000000001C6D
:100534003630180C000C0C00000000000000000015
:10054400F8000601FA02C902450245026501FA00F3
:100554000603F800000000000038386C6C6CFEC61E
:10056400C60000000000001F33331F3333331F0065
:1005740000000000003C6603030303663C00000027
:100584000000001F3333333333331F0000000000F7
:10059400001F03031F0303031F0000000000001FCC
:1005A40003031F030303030000000000003C660371
:1005B400037363663C0000000000003333333F33B1
:1005C4003333330000000000000303030303030379
:1005D400030000000000001818181818181B0E005B
:1005E4000000000000331B1B0F1F1B3333000000EF
:1005F400000000030303030303033F0000000000A3
:1006040000000000C701C701EF01EF01AB01BB010E
:10061400BB019301000000000000000000333337E9
:10062400373B3B33330000000000001C3663636338
:1006340063361C0000000000001F3333331F030324
:10064400030000000000001C366363636B363C400B
:1006540000000000001F3333331F1B33630000000E
:100664000000001E33030F3C30331E000000000066
:10067400003F0C0C0C0C0C0C0C00000000000033B0
:100684003333333333331E0000000000006363361A
:100694003636361C1C000000000000000000230653
:1006A4007306760356035603DE038C018C010000A7
:1006B4000000000000000066663C18183C666600F6
:1006C40000000000006666243C181818180000009A
:1006D4000000003F30180C0C06033F00000000002F
:1006E40000070303030303030303070000000001DF
:1006F40001020202020404000000000000070606D2
:100704000606060606060700000000040E0A1B0083
:1007140000000000000000000000000000000000D5
:1007240000003F000000000306000000000000007D
:10073400000000000000000E191E1B1B1E0000001C
:1007440000000003031F333333331F000000000095
:100754000000000E1B03031B0E000000000000300D
:10076400303E333333333E00000000000000001EEF
:10077400333F03331E0000000000001C060F060672
:1007840006060600000000000000003E3333333349
:100794003E311E0000000003031F333333333300A4
:1007A4000000000000030003030303030300000030
:1007B4000000000600060606060606060300000002
:1007C400000303331B0F1F1B330000000000000352
:1007D4000303030303030300000000000000000000
:1007E40000000000FF0133033303330333033303F7
:1007F40000000000000000000000001F333333330A
:100804003300000000000000001E333333331E00A9
:10081400000000000000001F333333331F030300C4
:1008240000000000003E333333333E30300000001C
:100834000000000F03030303030000000000000096
:10084400001E330F3C331E00000000000004060F9E
:10085400060606060C0000000000000000333333D7
:1008640033333E0000000000000000363636361CEC
:100874001C000000000000000000000000009301C4
:10088400BB01BB01EE00EE00C6000000000000004A
:10089400000000000036361C1C3636000000000044
:1008A400000000633636361C1C0C070000000000F4
:1008B400001F180C06031F0000000000000C0606B1
:1008C4000606030606060C000000000202020202ED
:1008D40002020202020000000003060606060C06DD
:1008E40006060300000000000000160900000000D6
:1008F40000000000007E4242424242427E0000006C
:100904000013206008050609090F0B030606070AF1
:10091400050605050909090909090909090905055A
:100924000A0A0A09110B0B0C0C0B0A0C0B05090B18
:10093400090D0B0C0B0C0B0B090B0B110B0B090505
:100944000505070906090909090905090904030830
:10095400030D0909090906080409070B0709080614
:1009640005060A0D00000000000000000000000061
:10097400000000000000000000000404040404045B
:100984000404040400040000000000000012121219
:100994001200000000000000000000000000000041
:1009A4000000009000900048004800FF0148002427
:1009B400002400FF012400120012000000000000C7
:1009C4000000000000000010007800D40092001223
:1009D4000012001C00700090009200920054003835
:1009E4000010001000000000000000000000001CC7
:1009F400042202220222012201A21C9C2240222063
:100A04002220221022101C00000000000000000020
:100A14000000000000700088008800880050003842
:100A24000024004202420182008401780200000096
:100A340000000000000000000202020200000000AA
:100A4400000000000000000000000008040404028C
:100A54000202020202020404040800000000040866
:100A640008081010101010101008080804000000E6
:100A740000083E08141400000000000000000000FC
:100A84000000000000000000000000100010001032
:100A940000FE001000100010000000000000000024
:100AA4000000000000000000000000000000000042
:100AB4000000000000040404000000000000000026
:100AC400000000001F000000000000000000000003
:100AD400000000000000000000000004000000000E
:100AE40000000010080808040404020202010100C6
:100AF4000000000000000000003800440082008272
:100B04000082008200820082008200820044003859
:100B140000000000000000000000000000000020B1
:100B240000300028002400200020002000200020A5
:100B34000020002000200000000000000000000051
:100B44000000000000780044008200800080004023
:100B54000040002000100008000400FE0000000017
:100B640000000000000000000000003800440042C3
:100B740000400020003800400080008000820046D1
:100B84000038000000000000000000000000000029
:100B94000020003000280028002400240022002126
:100BA40000FF0020002000200000000000000000E2
:100BB40000000000000000FC000400040002003EED
:100BC4000042008000800080008200440038000061
:100BD400000000000000000000000000003800C415
:100BE40000820002003A00460082008200820082F5
:100BF4000044003800000000000000000000000075
:100C0400000000FE00400040002000200010001002
:100C14000010001000080008000800000000000098
:100C24000000000000000000003800440082008240
:100C340000440038004400820082008200440038EE
:100C44000000000000000000000000000000003868
:100C54000044008200820082008200C400B8008048
:100C640000820044003C000000000000000000007E
:100C74000000000000040000000000000004000068
:100C8400000000000000000004000000000000005C
:100C9400040404000000000000000000000001C083
:100CA4000030000C0002000C003000C00000010005
:100CB4000000000000000000000000000000000030
:100CC400000000000000000000FE01000000000021
:100CD40000FE010000000000000000000000000011
:100CE40000000000000000000002000C003000C002
:100CF400000001C00030000C0002000000000000F1
:100D04000000000000000000000000000038004463
:100D140000820082008000400020001000100010BB
:100D240000000010000000000000000000000000AF
:100D3400000000000000C01F003060000880008434
:100D44009300441C01240801120801120801120432
:100D540001128400224600C43D0004000108800002
:100D6400306000C01F0000000000000020005000A0
:100D740050008800880088000401FC01020202027D
:100D84000104010400000000000000000000000055
:100D94000000FE000201020202020201FE01020141
:100DA4000202020202020201FE0000000000000032
:100DB4000000000000000000F0010802040402002A
:100DC4000200020002000200020004040802F00112
:100DD4000000000000000000000000000000FE0011
:100DE40002010202020402040204020402040204D4
:100DF40002020201FE0000000000000000000000EA
:100E040000000000FE030200020002000200FE01D6
:100E140002000200020002000200FE0300000000C3
:100E240000000000000000000000FE0102000200BB
:100E340002000200FE0002000200020002000200A2
:100E4400020000000000000000000000000000009C
:100E5400F00008010402020002000200C2070204BA
:100E6400020404020801F000000000000000000079
:100E7400000000000000020202020202020202025A
:100E8400FE03020202020202020202020202000045
:100E94000000000000000000000404040404040432
:100EA40004040404040000000000000000000080AA
:100EB400008000800080008000800080008000822C
:100EC40000820044003C000000000000000000001C
:100ED40000000000000202020182004200220032EF
:100EE400004A0086008200020102010202000000A2
:100EF40000000000000000000000000200020002E8
:100F040000020002000200020002000200020002CD
:100F140000FE0000000000000000000000000000CF
:100F2400000208060C060C0A0A0A0A12091209929F
:100F340008A208A2084208420800000000000000BD
:100F440000000000000000020206020A020A021267
:100F540002220222024202820282020203020200EE
:100F640000000000000000000000000000F0000885
:100F7400010402020402040204020402040204043E
:100F8400020801F000000000000000000000000062
:100F9400000000FE0002010202020202020201FE3F
:100FA4000002000200020002000200000000000033
:100FB400000000000000000000F00008010402022C
:100FC4000402040204020402040204C4060803F036
:100FD400060000000000000000000000000000FE09
:100FE4000002010202020202020201FE0042008229
:100FF4000082000201020200000000000000000064
:101004000000000000F8000401020202000400389D
:1010140000C0010002020202020401F80000000004
:101024000000000000000000000000FF011000109C
:10103400001000100010001000100010001000102C
:10104400001000000000000000000000000000008C
:10105400000202020202020202020202020202026E
:1010640002020202020401F8000000000000000075
:101074000000000000000002020202040104010456
:1010840001880088008800500050002000200000E3
:10109400000000000000000000000000000000004C
:1010A4000101018282008282008282004444004461
:1010B4004400444400282800282800282800101050
:1010C40000101000000000000000000000000000FC
:1010D40000000000000002020401880088005000A3
:1010E400200050008800880004010202010400006E
:1010F40000000000000000000000000002020401E3
:10110400040188005000500020002000200020002E
:10111400200020000000000000000000000000008B
:101124000000FE018000400040002000100010007C
:101134000800040004000200FF0100000000000099
:1011440000000000000E0202020202020202020279
:101154000202020E0000000001020202040404085C
:1011640008081010000000000000000E080808081D
:101174000808080808080808080E000000000814F9
:1011840014222222410000000000000000000000A0
:10119400000000000000000000000000000000004B
:1011A400000000000000000000000000000000003B
:1011B400FF01000000000002040000000000000025
:1011C400000000000000000000000000000000001B
:1011D400000000780084008200E0009C008200820D
:1011E40000C200BC0000000000000000000000007D
:1011F4000000000200020002003A00460082008261
:101204000082008200820046003A000000000000D4
:101214000000000000000000000000000000003892
:1012240000440082000200020002008200440038F0
:10123400000000000000000000000000000000802A
:101244000080008000B800C4008200820082008216
:10125400008200C400B8000000000000000000008C
:10126400000000000000000000000038004400827C
:10127400008200FE000200820044003800000000EA
:1012840000000000000000001804041E040404040C
:10129400040404040000000000000000000000003A
:1012A40000000000B800C4008200820082008200B6
:1012B4008200C400B800800042003C00000000002E
:1012C400000000000200020002007A008600820092
:1012D40082008200820082008200820000000000FE
:1012E40000000000000000020000020202020202EC
:1012F40002020200000000000000040000040404D4
:1013040004040404040404040300000000020202B0
:10131400824222121A26424282000000000000008B
:1013240002020202020202020202020200000000A1
:101334000000000000000000000000003A07C6089A
:101344004208420842084208420842084208000093
:101354000000000000000000000000000000000089
:1013640000007A00860082008200820082008200EF
:101374008200820000000000000000000000000065
:1013840000000000000000003800440082008200D9
:101394008200820082004400380000000000000047
:1013A40000000000000000000000000000003A00FF
:1013B40046008200820082008200820046003A00D9
:1013C4000200020002000000000000000000000013
:1013D40000000000B800C400820082008200820085
:1013E4008200C400B800800080008000000000007B
:1013F400000000003A06020202020202020000009B
:10140400000000000000003C4202023C4040423C1C
:10141400000000000000000202020F0202020202A9
:1014240002020E00000000000000000000000000A6
:10143400000000820082008200820082008200821A
:1014440000C200BC0000000000000000000000001A
:101454000000004141222222141408080000000068
:10146400000000000000000000000000210421042E
:10147400520252028A028A028A0204010401000012
:1014840000000000000000000000000041221414CD
:1014940008141422410000000000000000000000B5
:1014A40000000000008200820082004400440064C6
:1014B40000280028001000100008000600000000AA
:1014C40000000000007F201010080404027F0000C8
:1014D400000000000030080808080808060808088A
:1014E4000808083000000000040404040404040490
:1014F40004040404040404040000000304040404B5
:10150400040418040404040404030000000000009C
:1015140000000000000000000000001E01F10000B7
:1015240000000000000000000000000000000000B7
:10153400000000000000000000FC07040404040490
:1015440004040404040404040404040404FC070060
:101554000000000000000000000103070F1F3F7F90
:10156400FF0000000000000030993E35BE36427591
:1015740074746F6E73206E6F74207072657373650C
:101584006400427574746F6E732070726573736552
:1015940064202020202000426C61636B005768693E
:1015A40074650047726179004C69676874204772FA
:1015B400617900477265656E004C696D6500426C27
:1015C40075650052656400417175610059656C6C04
:1015D4006F77004D6167656E7461004379616E00D9
:1015E4004461726B204379616E004F72616E67656E
:1015F4000050696E6B0042726F776E0056696F6CB3
:1016040065740053696C76657200476F6C64004EB4
:10161400617679004D61726F6F6E00507572706CF7
:1016240065004F6C697665004D65746572202620EF
:101634004261722D677261706820676175676573B6
:101644003A0001002D4E414E00494E460000010073
:10165400280346160000F894EE27EFBBF1E0F5BF2F
:10166400E5BFF8E1A895A4B7A77FA4BFF0936000F5
:10167400E09360008DE0A2E0BB27ED938A95E9F743
:1016840080E098E0A0E0B1E0ED930197E9F7E2E5AE
:10169400F6E185919591009761F0A591B59105903A
:1016A4001590BF01F00105900D920197E1F7FB0140
:1016B400F0CFE0E0EEBBEFEFEDBFE8E0EEBFC0E05F
:1016C400D3E00C94650BEF97AB97E8E6F0E0DE010E
:1016D400A25ABF4FED93FC93E0E0DE01A05ABF4F46
:1016E400ED93EC93DE01AE59BF4FED93EC930E9462
:1016F4007B1EE160EC930E947B1EED7FEC930E94C5
:101704007B1EE460EC930E947B1EE77FEC930E94B7
:101714007B1EE061EC930E947B1EE062EC930E94CE
:101724007B1EEF7D0E94821EEC7FE1600E94821E80
:10173400E370E8690E948A1E38960E948F1E3996CB
:10174400DF01EC91E078E5630E948A1E3A960E94DC
:101754008F1E3A96DF01EC91E0680E948A1E3B9648
:10176400DF01EC91EE7F0E948A1E3B96DF01EC9133
:10177400E17CE663EC93DE01A25ABF4F0E94621340
:10178400E0910D03E160E0930D03ECE0F3E00E94CF
:10179400941EEFEFF7E00E94991EEEE1EA93EEE16A
:1017A400F0E0FA93EA93ACE2B6E10E94CA17E8E7E4
:1017B400DE01AF5ABF4FEC93EDECF0E0DE01AE5A20
:1017C400BF4FED93FC93E0E5F0E0DE01AC5ABF4F70
:1017D400ED93FC93E4E1F0E0DE01AA5ABF4FED93F0
:1017E400FC93E4E6F0E0DE01A85ABF4FED93FC93CE
:1017F400EBE0DE01A45ABF4FEC93DE01AF5ABF4FBA
:10180400C6D1E4E1EAAFE6EEF0E0EBAFFCAFE8EC22
:10181400EDAFECE3F0E0EEAFFFAFFE01FA963696E3
:101824000F010E949E1ED001ED93FC93FE01FA96D7
:1018340038960F010E94A61ED001ED93FC93FE0181
:10184400FA963C96DF01FE01EF5AFF4FE385EC93D5
:10185400DE01DA9653D310E0143000F5FE01EF5A9E
:10186400FF4F258136810E94A61EE217F3072CF054
:101874000E94AE1E2B5F3F4FF6CFFE01EF5AFF4F83
:10188400278130850E949E1E2E173F072CF00E9450
:10189400AE1E25503040F6CF1F5FDECFDCCFFFCF2A
:1018A400BA93AA9327971A930A93EF85F889A38189
:1018B400B481BF93AF930E940F17F0E00E94C11E42
:1018C400A6E6B6E686EA9FE30E94C922AF91BF91DD
:1018D4000E94C61E0E94CB1E8F01E985FA85FA93E9
:1018E400EA93DE0114960E94021EAF85B889EC913A
:1018F400F0E0FF93EF93AB85BC858D859E850E94B8
:101904003A1DD8010E94D01EAF91BF910E94D41EEF
:10191400EA93E889F989A181B281BF93AF930E94C8
:10192400D91E0E94B01CD8010E94D01EAF91BF9155
:101934000E94DE1EFA93EA93DE0115960E94BB17FD
:101944001981088161960895BA93AA9364970E94B5
:1019540074240E94E61E17960E94FB230E161F068F
:1019640024F0AC8DBD8D17960BC00E94E61E159613
:101974000E94FB23E015F10554F0AC8DBD8D159646
:101984000E94FB23AC8DBD8D1996ED93FC93EC8DD9
:10199400FD8D018412840E94ED1E0E94C11EA0E0F0
:1019A400B0E08CED92E40E94C9227F936F93FF9381
:1019B400EF93EC8DFD8D078010840E94ED1EAF9196
:1019C400BF918F919F910E94C11E0E941723A0E096
:1019D400B0E081E193E40E94F51EABEDBFE089E441
:1019E40090E40E94FA1EE0E0F0E064E373E40E94F5
:1019F40017230E94FF1E0E94041F0E943A1D0E948A
:101A0400091F0E94041F0E94B01CEE87FF87688B89
:101A1400798BEC8DFD8D0E940E1F0E94151F0E9474
:101A24001A1FEC8DFD8DA381B481E485F0E00E9442
:101A34001F1F0E94241F0E94151FEE83FF836887C7
:101A44007987AC8DBD8DEC91F0E0FF93EF930E940C
:101A5400291F0E942E1FAF91BF910E94D41E3E2FBA
:101A6400EC8DFD8DA181B281BF93AF930E94351F90
:101A74000E942E1FAF91BF910E94DE1EAF01009104
:101A8400000310910103EA8DFB8D0E94991EAC8D19
:101A9400BD8DEC91F0E0FF93EF930E94291F0E940B
:101AA4003A1FAF91BF910E94D41EEA93ED8DFE8D33
:101AB400A181B281BF93AF93EF85F88969897A894F
:101AC400AB85BC858D859E850E94C922AF91BF914F
:101AD4000E94DE1EFA93EA933A93DA010E940518F3
:101AE400EC8DFD8DE485F0E00E94C11EA0E0B0E025
:101AF40080E090E40E94C9220E941A1F0E94041FE1
:101B0400EBEDFFE069E47FE30E945C2309F008F455
:101B14000CC00E94041FE4EEFBEC66E170E40E943A
:101B24005C2311F008F001C001C007C00E94041F2B
:101B3400EFEDFDEE6FE270EC06C00E94041FE6EDCF
:101B4400F1E362E670E40E9472220E94FF1E0E948A
:101B5400411F0E94451FEE89FF89688D798DABED89
:101B6400BFE089E49FE30E9472220E94FF1E3A9321
:101B7400DA010E94F8170E94411F0E94451F00933A
:101B84000003109301030E947B246E960895BA9378
:101B9400AA9360970E947424EE89FF89E385F0E09C
:101BA40031970E94C11EABE0BEEB85EF9FE30E941C
:101BB4001723EE83FF8368877987E0EEFFEF0E94A7
:101BC400991EE2E0E0930E030E94571FE3E2F0E067
:101BD400FA93EA93E1E9F0E0FA93EA93ED8DFE8D4E
:101BE400A381B4810E94731BE0E7F7EF61E270E424
:101BF4000E94091FEE89FF89A381B481EAE0F0E025
:101C04000E94D223AE89BF891C96EC93EE89FF898A
:101C1400A381B4811197AD01E485F0E0DF01FA01FD
:101C2400EA1BFB0B9F01E1E0E0930E0310E0EE8959
:101C3400FF89E3851E1708F065C0AA89BB898C89D2
:101C44009D890E943A1DEE87FF87688B798BAA894C
:101C5400BB898C899D890E94B01C0E941A1FAE8981
:101C6400BF89EC91F0E0FF93EF930E94351FD901F7
:101C74000E94D01EAF91BF910E94D41EEA93EF89B7
:101C8400F88DA181B281BF93AF93EB85FC856D85FF
:101C94007E85D9010E94D01EAF91BF910E94DE1EA5
:101CA400FA93EA93A98DBA8DEC91F0E0FF93EF9348
:101CB400E989FA896B897C89DA010E94D01EAF9187
:101CC400BF910E94D41EEA93EA8DFB8DA181B2815B
:101CD400BF93AF930E94351FDA010E94D01EAF91CB
:101CE400BF910E94DE1EDF010E940518AE81BF81F4
:101CF400888599850E94291F0E9472220E94091FCB
:101D04001F5F95CFE4E0F9E00E94941EE0EEF7E057
:101D14000E94991E0E94621FE0E7F7EF61E270E4FF
:101D24000E94671FA581B681BBDD0E94621F0E94CD
:101D34006C1F0E94671F07801084AC8DBD8D1596A3
:101D44000E94711FADDD0E94621FEAEAF1E66CE1B8
:101D54007FE30E94671FA781B085A2DDE0EEFFEF5D
:101D64000E947C1F0E94571FE98DFA8D0E940E1F4E
:101D7400DF010E94471CAE89BF8915960E94FB2390
:101D8400AE89BF891996ED93FC930E94621FA0E06F
:101D9400B8EFDADD0E947B2468960895BA93AA937B
:101DA400EA81FB81A185B285E881F981EA17FB0705
:101DB40089F00E94811F0E94861FC6DDE881F98197
:101DC400AA81BB811996ED93FC930E94811FA0E028
:101DD400B8EFBADD24960895BA93AA9327970E9480
:101DE4008B1FDE0112960E94021EAA85BB85EC9110
:101DF400A985EA0FEF93DE010E941D170E94901F30
:101E0400AF91AE1BAA93EB85FC85A181B281BA93F5
:101E1400AA93DE0113960E94BB172C960895BA93D9
:101E2400AA932797E0E2E883E983EA83EB83EC83D0
:101E3400ED83E0E0EE830E9476242091000330914C
:101E44000103EFEFFFEF0E94991EEB85FC850684EA
:101E54001784AB85BC8550960E94FB23E00DF11DD1
:101E640032968F01E0910D03EE7FE0930D03AB8575
:101E7400BC85EC91EF93EB85FC85E381F0E0FF9367
:101E8400EF93DE0114960E941D17F0E0AF91BF910D
:101E94000E941F1F0E94E523AF910E94971FE091AB
:101EA4000D03E160E0930D03EB85FC85A285B3850A
:101EB400BA93AA93DE0116960E94021EAB85BC85D6
:101EC400EC91EF93EB85FC85E381F0E0FF93EF93D6
:101ED400DE0114960E941D17F0E0AF91BF910E949D
:101EE4001F1F0E94E523AF910E94971F20930003B8
:101EF400309301030E947D242D9608950E949F1F14
:101F0400E4E0F9E00E94941EE0EEFFEF0E94991EC7
:101F1400EE81FF81A481B581EAE0F0E00E94D22342
:101F2400AE81BF811D96EC93EE81FF81A181B281C8
:101F3400E585F0E0EA0FFB1FFF93EF930E940F1774
:101F4400F0E0AF91BF91EA0FFB1FAF01AE81BF81FB
:101F5400EC91EA935A934A93A985BA85AC91E985A1
:101F6400FA85E381EA0FEA93DA010E940518AE814B
:101F7400BF813C91EE81FF81E381F0E0DF01EE81DE
:101F8400FF81E485F0E031970E94E5232E2F00E0E5
:101F940010E0EE81FF81E485D801F0E0AE17BF07C1
:101FA4009CF43A93DA010E94F8170E94A41FE88572
:101FB400F985E585F0E00E947C23DF010E94E118A9
:101FC400320F0F5F1F4FE5CFE0EEF7E00E94991E3E
:101FD4000E94A91FE0E0EA93E985FA85A681B7810A
:101FE400FBDE0E94A91FE885F985E3810E94901F0A
:101FF400EA93E985FA8500841184A985BA85169641
:102004000E94711FE9DE0E94A91FE885F985A3815A
:10201400AA93E985FA85A085B185DEDEEE81FF818C
:10202400A481B581E585F0E00E94241FFF93EF931E
:102034000E940F17A2E0EA9FF001AF91BF91AE1B7F
:10204400BF0BE5E0F0E00E94241FAE81BF815096F3
:10205400ED93FC93FA013396AE81BF811E96ED9306
:10206400FC93EE81FF81E381FF27662777270E9497
:102074003F227F936F93FF93EF93EE81FF81008460
:102084001184A681B781F001EA1BFB0BAF91BF91CC
:102094008F919F910E94C11E0E941723AE81BF8120
:1020A40053960E940524AE81BF8116960E94FB239D
:1020B400AE81BF811A96ED93FC93AE81BF81529697
:1020C400E0E0EC930E947B2476C00E941E241A93C5
:1020D4000E94AE1F0E949E1C0E9406221E2FF0E04A
:1020E4000E94AE1F0E94C11E0E94F51E0E94B31FD3
:1020F40008F01F5FE12F18810C9411150E94BC1F7A
:102104000E94C11F09F455C0EE81FF813289AE815E
:10211400BF8116960E94FB23AC81BD81AE1BBF0B11
:102124000D01AE81BF8153960E94FF23D0010E940E
:102134009F230E9425240E94FA1EC7DF2E2F0091A0
:10214400190310911A030E94C11F6CF4E0E0F8EF28
:102154000E947C1FAE81BF81EC91E30F0E94CB1FD4
:10216400E22FE31B0CC00E94D31F0E947C1FAE8190
:10217400BF81EC91E20F0E94CB1FE32FE21BEA9395
:10218400EA85FB85A089B1890E94F41B0093190399
:1021940010931A03EC81FD81AE81BF811A96ED93F1
:1021A400FC93E22FAE81BF815296EC93AE81BF8146
:1021B40036DE0E947D2428960895AAD14098A8D19D
:1021C400409A0895FF92AA9321970E947424EF8164
:1021D400E03011F0E53061F4AA85A33031F4A09128
:1021E4002303B0912403109709F001C07AC11AC0E7
:1021F400E13011F0E23009F402C0E33009F402C026
:10220400E43009F46EC1E63069F4EA85E13009F49A
:1022140068C1E33039F4E0912503F0912603309747
:1022240009F45FC1A889A03F68F4AE85BF85A034D6
:10223400E1E0BE0738F4AD85A03021F0AB85BC8564
:10224400109709F44EC1A889BB27ED85F0E0AE0FC5
:10225400BF1FA13FE0E0BE0720F0A889E0EFEA1B22
:10226400ED87EB85FC85AE85BF85AE0FBF1FA1341E
:10227400E1E0BE0740F0AE85BF85E0E4F1E0EA1B93
:10228400FB0BEB87FC87ED85A889AE0FA150AE83CD
:10229400E889EA93EF85F889FA93EA93E985EA9362
:1022A400EF85F889AA89BB89AE0FBF1F11970E94D9
:1022B4004D13AF81A630B1F50E94D81FEA85E330F3
:1022C400C1F40E94E11FA1F03D85E32F3150E030BD
:1022D40071F00E94A5148F010E94E81FA02F0E9494
:1022E400F11F0E94E81FA12F0E94F11FEECFE9CF3A
:1022F40017C00E94E11FA1F03D85E32F3150E0306B
:1023040071F00E94A5148F010E94F71FA02F0E9454
:102314005F1E0E94F71FA12F0E945F1EEECFE9CF20
:10232400439ADFC0AF81A73041F4009100031091BC
:102334000103E0910D03E0FB09C0AF81A83009F06F
:1023440055C00091190310911A03E894F0F8ED8533
:102354000E940220ED85E770ED87E03009F04F5FC1
:10236400F0FC1FC00E9407200E94E11FC1F020E082
:102374002417A0F40E940D2021F4ED85E03009F02B
:102384005D8530FF02C0F80102C00E94D31FDF0147
:102394000E94CA1236955150A1F7EACFE5CF439A6D
:1023A40024C00E94E11F09F10E942020E889EE83E5
:1023B40020E02417B8F40E940D2021F4ED85E030CC
:1023C40009F05D8530FF07C00E942F20AE810E9476
:1023D40035200E943E203695EE81EF5FEE8351500A
:1023E40089F7E7CF0E944320DCCF7BC0AD85BB27B4
:1023F40088279927EB85FC850E9449209F01462F59
:102404000E944E20EF81E03001F54398AA85A33065
:1024140071F40E9453200E2F0E9453201E2FD801C6
:102424000E94CA1221503040404099F70CC00E94CB
:102434005F200E2F0E945F201E2FD801A9D02150AB
:1024440030404040A1F7439A4CC0E53009F03FC00A
:10245400AA85A330F1F40E94E11FD1F00E9420204C
:102464003889EE81E31788F00E9453200E2F0E94D2
:1024740053200E946D2039F00E942F20A32F0E9428
:1024840035200E943E203F5FECCF0E944320E3CFE3
:102494001DC00E94E11FD1F00E9420203889EE81E6
:1024A400E31788F00E945F200E2F0E945F200E9495
:1024B4006D2039F00E942F20A32F0E9435200E9406
:1024C4003E203F5FECCF0E944320E3CF0AC0E930B7
:1024D40019F40E94861F04C0EA3019F40E94752082
:1024E40054D20E947B246196FF900895209A219AE9
:1024F400529A539A549A559A569A579A08952098EC
:1025040021985298539854985598569857980895E6
:1025140000000000000000000000000000000000B7
:102524000000000000000895AA931A9319814398AB
:1025340010FF02C0289A01C0289811FF02C0299AEE
:1025440001C0299812FF02C05A9A01C05A9813FF79
:1025540002C05B9A01C05B9814FF02C05C9A01C080
:102564005C9815FF02C05D9A01C05D9816FF02C019
:102574005E9A01C05E9817FF02C05F9A01C05F981F
:10258400C7DF4198C5DF419A439A18810C940D170F
:10259400BA93AA931A930A930A811B8110FF02C06B
:1025A400289A01C0289811FF02C0299A01C02998CD
:1025B40012FF02C05A9A01C05A9813FF02C05B9AD4
:1025C40001C05B9814FF02C05C9A01C05C9815FFBF
:1025D40002C05D9A01C05D9816FF02C05E9A01C0F8
:1025E4005E9817FF02C05F9A01C05F9891DF41981F
:1025F4008FDF419A00FF02C0289A01C0289801FF8A
:1026040002C0299A01C0299802FF02C05A9A01C047
:102614005A9803FF02C05B9A01C05B9804FF02C092
:102624005C9A01C05C9805FF02C05D9A01C05D9888
:1026340006FF02C05E9A01C05E9807FF02C05F9A5F
:1026440001C05F9865DF419863DF419A1981088171
:102654000C94F6171A9340985BDF10E0189911E078
:10266400199912604A9914604B9918604C99106139
:102674004D9910624E9910644F991068409A08C0A1
:102684001A93429A3CDF439843DFE4DF1E2F439AB8
:10269400E12F19910895BA93AA930E942F20AD8136
:1026A4000E947A20AA8140DFABE265D1AC8166D179
:1026B400AB813ADFA98138DFA88136DF0C940E198B
:1026C400BA93AA932C971A930A933B9A439A389AEB
:1026D400409A399A419A3A9A3C9A4498AAE0B0E0CE
:1026E4000E94C921449AA8E7B0E00E94C921A3ED41
:1026F40042D1C6DFC5DFC4DF1E2FC2DF0E2F133960
:1027040029F4003411F0013409F402C0E0E017C1E7
:10271400EE85FF85309731F0DE0112968CE00E9441
:10272400522407C0E6E6F5E1DE0112968CE00E9431
:102734005C24A8E220D1A6EF1ED1A1E01FD1A1E123
:102744000E947A20013409F045C0AFEC0E947F203A
:10275400A1E8EADEA0E3E8DEADEE0DD1A4E60ED1F9
:10276400A3E0E2DEA2E1E0DEE885E07111F0E1E859
:1027740001C0E1E0AE2FD8DEA8EEFDD0A5E8FED082
:1027840010E0E885E07209F011E0E885E07409F0F2
:102794001061A12FC9DEE985E370E867AE2FC4DEBE
:1027A400ABECE9D0A9E3EAD0ACE20E947A20A4E33E
:1027B400BBDEA2E0B9DEA7EFDED0E885E87011F059
:1027C400E0E301C0E0E2AE2FD9D0AAEE0E947F2060
:1027D400A0E0AADEA0ECCFD0E985E695E695EF73FC
:1027E400AE2FCCD0003411F4A4E0C8D0A1ECC3D0F7
:1027F400A1E1C4D0A5ECBFD0EB85EF77AE2FBED05E
:10280400EA85EF77AE2F90DEA7ECB5D0EC85E068D3
:10281400AE2FB4D0A6E3AFD010E0E885E47009F0A1
:1028240018E0E885E17009F01064E885E27009F0C9
:102834001068A12FA3D010932703A6EB9CD0AAE085
:102844009DD012E0ED85E17009F012E1EC85E078AD
:1028540009F01068A12F68DEA1EB0E947F20ED85AE
:10286400E695EF711E2F103108F410E1A12F5CDE04
:10287400013421F4A2EF7FD0A2E080D0A6E27BD085
:10288400A1E07CD0AAE377D0A5E578D0ADE273D0FF
:1028940010E0103420F4A12F71D01E5FFACF10E0A5
:1028A400103420F4A12F40DE1F5FFACF10E0103463
:1028B40020F4A12F39DE1E5FFACFA1E15CD0A8E796
:1028C400B0E00E94C921EFEFFFEF0E94991EE0E003
:1028D400F0E0E0930203F0930303E0930403F09326
:1028E4000503EA81FB810E94941EEC81FD81E09343
:1028F4002303F0932403EE81FF81E0932503F093F7
:102904002603E1E0E0930B03E0930C03E0910D0355
:10291400EE7FE0930D030E948420EFEFFFEF0E940F
:102924007C1FEBE1F3E0FA93EA93EFEFEA93A8E07C
:10293400B0E00E94301E36D0A9E21DD0E1E019813A
:102944000881609608950E94762484DE1E2F82DE1C
:102954000E2FEC7FF0E00E9488239F017BDEE6953A
:10296400E695E6952E2BE12FE87F3E2BF9010E9498
:102974007D240C94F617AA93429802C0AA93429A13
:10298400B5DDA881D1DD21960895BA93AA93439821
:10299400A881B981FDDD215030404040C9F7439AF8
:1029A4000C940D170E948B200E948E200E944E20B2
:1029B4002F933F934F9320E03CE241E00E94861F17
:1029C400E4DF4F913F912F91E0E0EA93A0E0B0E083
:1029D4000DD30895BA93AA930E9494200E940720CD
:1029E400A881B9810E94CA12439A19C0BA93AA93C2
:1029F4001A930A93AC81A03F30F4AA81BB81A0341E
:102A0400E1E0BE0718F0E0E0F0E007C00E94942087
:102A14000E94D81F98DF8F01439A19810881259657
:102A24000895FF92AA930E947424FF24A985BB27CA
:102A340039D1E987AE81BB2735D1EE83AF81B88523
:102A440043D1EF83F887E0910E03AF81B885F0E0BE
:102A5400AE0FBF1F119738D1AF01EE81EA93A8855D
:102A6400B985C4D2EE81A985EA1798F42985E98746
:102A74002E830E949B20E0E4AE2780DF6894F0F868
:102A8400AE81EFEEEA1B2E2FA985EFEEEA1B3E2F57
:102A940002C029853E812A93E885F985FA93EA9351
:102AA4003A93DA010E944D130E944E20A985EE81CB
:102AB400EA1BEF5F2E2FAF81B885FA01EA1BFB0BEF
:102AC4003196AF01A0910F03AF3F69F4A22FBB274A
:102AD400882799270E9449209F01462F0E9475202C
:102AE4000E94C71420C024970E94D31F0E94A120D3
:102AF40000E0322FA02F0F5FA77011F410910F0385
:102B040010FF03C0E881F98102C0EA81FB81DF0183
:102B14000E94CA121695315069F7FA013197AF0134
:102B240039F7439A2496F0FE04C00E949B200E9429
:102B3400C0140E948B200E948E200E947B242A961F
:102B4400FF900895BA93AA9322970E947424AC85A7
:102B5400BB27A8D0EC87AC85BB27E0910E03F0E03F
:102B6400AE0FBF1F11979ED03E2FAA85BB85ACD058
:102B7400EA87FB87A885B985A7D0E887F987EC851C
:102B8400EA93A985BA8532D2E0912703E0620E2F39
:102B9400E885F985AA85BB85EA17FB07C0F44A8551
:102BA4005B85EA87FB8748875987E0E80E27A88575
:102BB400B985EFE3F1E0EA1BFB0BEE83FF83AA8503
:102BC400BB85EFE3F1E0EA1BFB0BAF0106C0EA852E
:102BD400FB85EE83FF8348855985A6E30E94BD14D7
:102BE400A02F0E94C014AAE20E94BD14AF810E94CB
:102BF400C014AE810E949612A52F0E949612A42F93
:102C04000E949612ABE20E947F20AC850E947A203B
:102C1400A32F0E9496120E944E20AC85E32FEA1B3C
:102C2400EF5F3E2F0E94AB203196EE83FF83A0918D
:102C34000F03AF3F69F4A32FBB27882799270E946E
:102C440049209F01462F0E9475200E94C71421C06D
:102C540024970E94D31F0E94A12000E04A855B852F
:102C6400A02F0F5FA77011F410910F0310FF03C082
:102C7400E881F98102C0EA81FB81DF010E94CA1266
:102C84001695FA013197AF0159F7315031F7439A4C
:102C940024960E949B200E94C0140E948B200E94B4
:102CA4008E208CC40E94B2201CF0E0E0F0E0B3C09F
:102CB400A881B981A03FE0E0BE071CF0EFEEF0E090
:102CC400AAC0E881F981A7C00E94B2201CF0E0E00C
:102CD400F0E0A1C0A881B981A034E1E0BE071CF0F6
:102CE400EFE3F1E098C0E881F98195C0BA93AA9323
:102CF400EA81EA93E981FA81FA93EA930E947520C2
:102D040069DE7FC1BA93AA9323970E94B9208F01E9
:102D1400002E012A19F4E0E0F0E064C00E94C02013
:102D24000F820E94C0200E820E94C0200886EB857C
:102D3400A885EA1718F4E0E0F0E054C0F8010F5F4A
:102D44001F4F5491A885BB27EE27A50FBE1FEB8507
:102D5400F0E0EA17FB0718F0E0E0F0E043C0EF8191
:102D6400E030D1F0A985BA85EC930E940220EF816E
:102D7400E77009F04F5FA885EB85EA1BF0E0DF01FF
:102D8400EE81F0E00E94AA23DF01E42FF0E00E942C
:102D9400AA23E00FF11F26C09801E52FF0E00E0FE3
:102DA4001F1FA885AF5FA887A150EB85AE17A0F4BD
:102DB400F901E4910E940220F9012F5F3F4FE49151
:102DC400E77009F04F5FAE81BB27E42FF0E00E946B
:102DD400AA230E0F1F1FE5CFF901E491A985BA8537
:102DE400EC93F8010E947B242C960895AA932197D2
:102DF400E0910903F0910A03309761F0E981EA93C5
:102E0400DE0111967FDF309729F0E0910B03A88152
:102E1400EA0F01C0E0E0229608950E94C520309791
:102E240011F4E0E008950E94C5203196A491E09148
:102E34000C03EA0F0895BA93AA931A930A9300E035
:102E4400AA81BB81ED91AA83BB831E2FE03021F0C0
:102E5400A12FCCDF0E0FF4CFE02F19810881C4C05D
:102E6400E0E0E09306030E94CA203196E491F0E08A
:102E7400AE0FBF1FE0910C03F0E0AE0FBF1F0E9426
:102E8400CF200895AA9321970E94B920309709F47E
:102E94006AC0AF81AA3009F464C0EF81EA93DE010D
:102EA400179630DFAF01309709F45FC0E0910B0350
:102EB400AE81EA0F3E2FA0910603BB27F0E0EA0F94
:102EC400FB1F8F01013FE0E01E0718F0032F1127BD
:102ED400C7DF0E94D620E985EA930E94C520319677
:102EE400E491F0E0FA93EA93E1E0EA935A934A9387
:102EF400A7E00E94E410E0910D03E17069F5E09110
:102F04000603AE810E94E020FA93EA93E0910B035A
:102F1400EA930E94C5203196E491F0E0FA93EA9393
:102F24000E948B20A9E00E94E410E0910603EA933A
:102F34000E94CA203196E491F0E0EA0FFB1FFA9355
:102F4400EA933A93E0910C03F0E0FA93EA930E9437
:102F54008B20A9E00E94E410E0EFF0E0E017F10715
:102F640011F47EDF02C0009306030E947B2428969E
:102F740008950E94E720A981BA81ED91A983BA83BB
:102F84001E2FE03019F0A12F7DDFF5CF188144C149
:102F94000E94E720E981FA813196E983FA83319727
:102FA400E4911E2FE03019F0A12F6CDFF3CF1881CC
:102FB40033C1AA93EB81EA930E94811FE0910F032E
:102FC400AB81EA2329F0E0910003F091010302C0F0
:102FD4000E94D31FDF01FEDCE881EE0FE883E030BE
:102FE40011F4E1E0E883E88124960895BA93AA9362
:102FF400AA81BB2757DEE0930603A881B9810E940A
:10300400CF2023960895BA93AA932C970E947424F0
:10301400AF89BB2747DEEF8BAC89BB2743DEEC8B44
:10302400AD89BE8951DEED8BFE8BAA89BB894CDE4E
:10303400EA8BFB8BEC89E0930603EA89FB89E09336
:103044000703F0930803E1E0EF83EA89FB89AD8984
:10305400BE89EA17FB0781F41F89AC891A1731F47A
:103064001A930E94621FA1E0A4DFA5C01A930E94D4
:10307400621FAF89D6DC9FC0EC89AF89EA1751F48F
:103084002D893E89EF89EA933A932A93AD89BE89C3
:1030940059DD91C0E0E0EE83AE81AF5FAE83A15015
:1030A400E0910E03AE1708F086C01F892D893E8972
:1030B400E1E0F0E0AF010E2FAC89BB27EF89F0E02F
:1030C400AE1BBF0BA88BB98BA989AA233AF40FEFC7
:1030D400E889F9890E947C23E88BF98BE889F989CE
:1030E400EE0FFF1FEE87FF87AD89BE89EA89FB8952
:1030F400EA1BFB0BEC87FD87AD85AA2332F44FEF67
:103104005FEF0E947C23EC87FD87EC85FD85EE0F45
:10311400FF1FEA87FB871A933A932A93A1E049DFBA
:10312400EF83E0E0E887E987E889F989AC85BD8524
:10313400EA17FB07E4F0100FEA85FB850E94F020F4
:10314400E889F989A885B985EA17FB0754F4240F9F
:10315400351FAE85BF85E885F985EA1BFB0BE8873B
:10316400F9870E94F720EC89E11729F719C0240F89
:10317400351FEE85FF850E94F020EC85FD85A8852E
:10318400B985EA17FB072CF4100F0E94AB20E887DF
:10319400F9870E94F720EA89FB89E217F30739F7D8
:1031A400ED89FE893196ED8BFE8BEA89FB89319698
:1031B400EA8BFB8B71CF0E947B2468960895BA93A7
:1031C400AA930E94D620E0910603AD810E94E020DC
:1031D400AC81BD81AE0FBF1F16DF0C94791E0E9417
:1031E4001E241A930A93AA81BB818C819D810E941B
:1031F4009E1C0E9408228F01AA81BB818C819D8123
:103204000E94C11E0E94F51E0E94B31F10F00F5FA2
:103214001F4FF8011981088126960895BA93AA933D
:103224002497EA85FB850E94151FA5E3BAEF8EE873
:103234009CE30E94FF20EE85F0E0FF93EF930E9451
:1032440004210E943A1DA885B9850E94D01EDF0181
:10325400CB01C5DFAF91BF91AE0FBF1F23DDAE81A0
:10326400BF81EC930E9404210E94B01CA885B985FB
:103274000E94D01EDF01CB01B2DFAC85BD85AE1B41
:10328400BF0B22DDAC81BD81ED93FC93A9C2BA933F
:10329400AA9324970E947424EE85E987E0910E0393
:1032A400E887E0910003F0910103EE83FF83ED8949
:1032B400F0E0A889B989EA0FFB1F8F01EA89AB897D
:1032C400BC89F0E0AE1BBF0B9D01EA89AB89BC89C8
:1032D400F0E00E94072171F0E985E078F1F4AE8511
:1032E400BF85EAE5F0E00E940E211CF00E94172140
:1032F4000CF413C0332312F00E941C21A885A230C1
:1033040020F02230E0E03E070CF407C00E942021A8
:1033140021F40A93D9011197E9DCE985E878E838C2
:1033240091F0E985E078C9F4AE85BF85A25FBE4F10
:103334000E942B213CF0AE85BF85A25FBE4F0E9448
:1033440030210CF40AC00E94352138F00E943C213F
:1033540021F40A93DA011196C9DCAD89BB27E88907
:10336400F989AE1BBF0B8D0111230AF445C0E98511
:10337400E278E23891F0E985E07811F5AE85BF8511
:10338400A65ABF4F0E942B213CF0AE85BF85A65A9A
:10339400BF4F0E9430210CF413C0332312F00E945B
:1033A4001C21A885A23020F02230E0E03E070CF476
:1033B40007C00E94202121F40A93D901119796DCB9
:1033C400E985E478E43871F0E985E078A9F4AE851C
:1033D400BF85EEE0F1E00E940E211CF00E9417214F
:1033E4000CF40AC00E94352138F00E943C2121F4DB
:1033F4000A93DA0111967ADCAD89BB27EA89F0E0F9
:10340400EA0FFB1F8F01A889B989EB89FC89EA1BA4
:10341400FB0B9F01E889F989AB89BC890E940721CC
:1034240081F0E985E078F1F4EC85FD85AE85BF8512
:10343400AE17BF072CF0EA85FB85EA17FB070CF4EF
:1034440011C033237AF00E941C21A885A23050F0C9
:10345400E02FEE5F0E94472129F4E02FEF5FEA930B
:10346400D90144DCE985E878E83871F0E985E07849
:10347400C1F4AE85BF85E8E6F1E00E940E211CF0A0
:103484000E9417210CF40DC00E94352150F0E02F4A
:10349400EE5F0E94512129F4E02FEF5FEA93DA01F5
:1034A40025DCAD89BB27EA89F0E0AE1BBF0B8D019B
:1034B40011230AF450C0E985E278E23871F0E98515
:1034C400E07809F5AE85BF85E4EBF0E00E940E21BB
:1034D4001CF00E9417210CF416C03323A2F00E94A2
:1034E4001C21A885A23020F00230E0E01E070CF475
:1034F4000AC0E02FE2500E94472129F4E02FE15056
:10350400EA93D901F3DBE985E478E43891F0E985BD
:10351400E07809F5AE85BF85AC54BF4F0E942B21DE
:103524003CF0AE85BF85AC54BF4F0E9430210CF4F3
:1035340012C00E94352120F00230E0E01E070CF496
:103544000AC0E02FE2500E94512129F4E02FE150FB
:10355400EA93DA01CBDB0E947B24669608950E94ED
:103564009F1FAC85BB27E885F985AE1BBF0B9ADB93
:103574001E2FEC85F0E0A885B985AE0FBF1F92DB46
:103584000E2FAE81BF81EA85FB85EA1BFB0BDF01B1
:103594009BDB9F01EE81FF81AA85BB85AE0FBF1F18
:1035A40093DBAF011A933A932A930A93D9012BDD43
:1035B4001A935A934A930A93DA0125DD0E947B24D5
:1035C4002D960895AA930E947424AB85A03F30F4ED
:1035D400A985BA85A034E1E0BE0720F00E947B24CF
:1035E4000C94001E00910E03E02F0150E03009F40A
:1035F40044C0EF81F885309721F40E947B240C9419
:10360400001EEF81F8853197EF83F8870E945B21D4
:10361400AE81A03481F40E946821E12FF0E0FA9396
:10362400EA93D9019CDF0E9468213A932A93A12F3F
:10363400BB2795DF0EC00E9468211A933A932A9300
:10364400EC85F0E0FA93EA930E94A41FA0E0B0E0B6
:103654001EDE1F5F55231AF4E12FF0E002C00E9422
:103664006F21EE0FFF1F31964E0F5F1FF901A12F3F
:10367400B0E0EA17FB0760F6B7CF0E947B240C94F6
:10368400001E0E94BC1FAA85A03F30F4A885B985FE
:10369400A034E1E0BE0710F0E0E01FC0AE81BF81BE
:1036A4000D911C91AC81BD812D913C91D801E8E62E
:1036B400F1E00E94EA238F01D901E9E6F1E00E94DA
:1036C400EA239F01AE81BF810D931C93AC81BD8120
:1036D4002D933C93D8010E94A4230E947D242B9611
:1036E40008950E949F1F0E947621FE013D96FA9341
:1036F400EA93DE011D96C5DFE03009F46FC0EE8564
:10370400E0931003EC85FD85E0931103F09312031D
:103714000E947621ED85FE850E947D21E3E1F3E0A0
:10372400FA93EA93A4E1B3E079DD0E947621EB8574
:10373400FC850E947D21E6E1F3E0FA93EA93A7E198
:10374400B3E06CDD00910E03E02F0150E03009F48A
:1037540045C0EE81FF81309709F440C0EE81FF81BE
:103764003197EE83FF830E945B210E9476211A9396
:103774003A932A93F9010E94151F0E941924E12FFC
:10378400FF27662777270E943F22DF01CB010E9493
:10379400AE1DA1EEBEE285E692E40E94C9220E941B
:1037A4000822FA93EA93EA89FB89FA93EA93AA89AD
:1037B400BB896DDD1F5F55231AF4E12FF0E002C0D1
:1037C4000E946F21EE0FFF1F31964E0F5F1FF9010C
:1037D400A12FB0E0EA17FB0740F6B6CF0E947B2486
:1037E4002F9608950E949F1FAB85A03F30F4A985B2
:1037F400BA85A034E1E0BE0720F00E947B240C943B
:10380400001EE885E03021F0EE81FF81309709F455
:1038140038C029853A85F901AE81BF81EA0FFB1FC3
:10382400EE83FF83EB85A885EA0FE887EE81FF81AD
:103834002E173F0730F5E21BF30BAF014930E0E0F0
:103844005E0710F048E050E01B85E8851E17B0F4D1
:10385400E11B0E2F093008F008E01A933A932A93DB
:103864000A935A934A93E0E0EA93EBE1F3E0FA9384
:10387400EA93A8E00E94E410100FE7CF240F351F4D
:10388400D5CF0E947B240C94001E0E94BC1F109173
:103894000003E0910E030E2FE0910F033E2FE09101
:1038A4001903F0911A030E94991E0E948420E8854E
:1038B400EA930E948B1F0E948B1FA0E483DEE12FFA
:1038C400F0E00E94991E00930E0330930F030E94B0
:1038D4007D240C94381D0E941E247B816A81F98109
:1038E400E88177FB770F67FD7160972F9E5781F012
:1038F40078F0983190F4AA27BB27882708948795F5
:10390400B795A7959A95D1F7EA23FB23682305C0B9
:10391400E8947727EE27FF2766276F77769508F4D4
:10392400606877F9A991B99189919991EA17FB0790
:103934006807790797FB08950E9484210E946D1CF3
:103944000E94142421F40E9487210C94791EDEF72E
:103954000E948A210E9472220C94791E0E941E24C5
:1039640024971A9310E00E949021E3E8F9EF62E2B1
:103974007EE30E94C9220E949521DEDF0E949021ED
:103984000E94F51E0E949521E0E0F0E060E07FE3F4
:103994000E945C2309F008F409C00E949A21A0E067
:1039A400B0E080E09FE30E949F2111E00E949021FB
:1039B400E0E0F0E060E87EE30E945C2309F008F4B4
:1039C40008C00E949021E0E0F0E060E07FE30E9404
:1039D4009F21103041F00E949A210E94D321ED834F
:1039E400FE836F8378870E949A210E9490210E940F
:1039F400C922E983FA836B837C83A1EBB4EC86E26E
:103A040092E40E94FA1EEDE1F5EE6DE272E40E948A
:103A1400F51E0E94AE1F0E94C922ACE4B3E584E007
:103A240091E40E9479220E9490210E94C9227F93EE
:103A34006F93FF93EF93E981FA816B817C81A1E11C
:103A4400BDEE8EED9FE30E9479220E94AE1F0E947C
:103A5400C922AEE5BBE788EA9FE30E947922AF91D1
:103A6400BF918F919F910E941723188129960895E1
:103A74000E9484210E946C1F0E947222DF01CB01EC
:103A84006DDF0C94791E0E94A6210E94AE210E9433
:103A9400FF200E948721A5E6B0ED8BEC90E40E9404
:103AA400B3210E94AE210E94C9227F936F93FF939A
:103AB400EF930E948721A0E0BDE689E291E40E9491
:103AC40079220E9404210E94B321AF91BF918F916A
:103AD4009F910E941723289608950E948421EDEC5B
:103AE400F3E164ED7EE30E945C2328F40E94042148
:103AF400CADF0C94791E0E940421EAE7F2E86AE125
:103B040070E40E945C2309F008F40CC00E948A212E
:103B14000E94BC21ABEDBFE089EC9FE30E94F51E3F
:103B24000C94791E0E948A210E9472227F936F93C3
:103B3400FF93EF930E948A210E947922AF91BF9153
:103B44008F919F910E94BC21ABEDBFE089E49FE37C
:103B54000E9479220C94791E0E94A6210E94662458
:103B6400D9F4E885F9856A857B850E94662429F461
:103B7400EFEFFFEF6FE77FE741C0A885B9858A853E
:103B84009B850E946E241CF40E946C1F37C0EBEDD1
:103B9400FFE069EC7FEB32C0EC81FD816E817F81B7
:103BA400A885B9858A859B850E9417230E941424C1
:103BB4000E94AE210E946E2464F4AB85AA2322F0F5
:103BC4000E9404218ADF1AC00E94C2210E94D321CC
:103BD40015C0AB85AA234AF00E94C221ABEDBFE019
:103BE40089E490E40E94F51E09C00E94042175DF57
:103BF400ABEDBFE089E490EC0E9479222C96089505
:103C0400BA93AA93A991B991E991F99130962AF4BA
:103C1400E095F09531966DE26D93E89480E197E23A
:103C24000DD088EE93E00AD084E6992707D08AE085
:103C340005D06E2F10D066276C9308956627E81779
:103C4400F90720F06395E81BF90BC9F7662311F413
:103C540016F008956894605D6D930895BA93AA93DD
:103C6400B981A881109631F0FC81EB816A8161935E
:103C74001197E9F7EB81FC8125960895BA93AA93ED
:103C8400EA81E13021F4E881F981E49114C0E23061
:103C940029F4A881B9810E9435240DC0E33041F490
:103CA400A881B981E0912303F0912403099503C00D
:103CB400A881B981EC9123960895AA93EB81E03011
:103CC40029F4E881A981BA81EC9311C0E23031F47E
:103CD400E881A981BA810E94412409C0E33039F402
:103CE400E981FA81FA93EA93AA810E94F11F24964A
:103CF4000895FE01E25AFF4F3696DF01EC910895D4
:103D0400EC93FE01E25AFF4F3796DF01EC910895E0
:103D1400EC93FE01E25AFF4F0895DF01EC91E07845
:103D2400EE63F6CFE0930903F0930A030895E0935A
:103D34000003F09301030895FE01EF5AFF4F3596F7
:103D4400DF010E94FB230895FE01EF5AFF4F3796CF
:103D5400DF010E94FB230895FE01EF5AFF4FFA93FF
:103D6400EA93D9010E94D00EFE01FA96FA93EA93DF
:103D7400D9010E948010A2E3B0E00C94C9210E94F2
:103D84009A230E943F220895882799270E94252478
:103D940008950E9479220E9406220895F5DF0E9468
:103DA400C92208950E949F230E942524F2CFAC8546
:103DB400BD858E859F850895E7DF0E9428240E9493
:103DC40072220E9406220895EC8DFD8D01841284D6
:103DD400AC8DBD8D0895EC8DFD8DA581B681F0016E
:103DE400EA1BFB0B08950E9428240E947222089566
:103DF4000E94C922DF01CB010895EE8BFF8B688FEF
:103E0400798F0895AE89BF89888D998D0895EA8B3D
:103E1400FB8B6C8B7D8B0895A381B481ECE0F0E087
:103E24000E94D2230895662777270E943F2208958F
:103E3400EA87FB876C877D870895AE1BBF0BE2E0A2
:103E4400F0E008950E942E24EA1BFB0B0895EA89F2
:103E5400FB896C897D890895AE81BF8188859985A8
:103E64000E94C9220895EE85FF856889798908959D
:103E7400AA85BB858C859D850E94C9220895C2DFD1
:103E84000E943A1DF5CF0E940822FA93EA93A88D66
:103E9400B98D8A8D9B8D0E94B01C89DF0E94C92236
:103EA4000E940822DF010C94E118AE89BF89EC91CD
:103EB400EA93EF89F88DA181B281BA93AA93089508
:103EC400EE89FF89FA93EA9308950E941924EC8DF0
:103ED400FD8D0895EBEDFFE069EC7FE308950E940A
:103EE400FB23D001AE0FBF1FE2E0F0E00E94E52308
:103EF400DF010895E0931903F0931A030895EA810A
:103F0400FB81FA93EA930895A0910203B09103030D
:103F14000895EF81F885FA93EA930895F0E0DF01BC
:103F2400E2E0F0E00E94E5230895EA0FEA931A9391
:103F34000A93DE0117960C94BB17BA93AA930E94B6
:103F440074240895E0E0F0E0FA93EA930895EE8192
:103F5400FF81FA93EA930895A981BA818B819C81A8
:103F64000895DF01CB01E0E0F0E060E07FE30E9430
:103F74005C230895BA93AA930E9476240895AE818F
:103F8400BF811A960E94FB23AC81BD81EA17FB070F
:103F94000895EA93EF81F885A685B785BA93AA9325
:103FA4000895E0910203F09103030895AEE20E94A4
:103FB400BD14429A0E94811243980C94DF10EB8541
:103FC400FC853197EB87FC8731960895E885F98560
:103FD4003196E887F9873197FA93EA930895E09147
:103FE4002503F091260309950895EA85EA93E98566
:103FF400FA853196E987FA873197FA93EA93089517
:10400400E695E695E6954E2F0895ACE20E94BD1420
:10401400429A43980895EA85EA93E985FA853196A8
:10402400E987FA87319766277727DF01CB010E945A
:10403400401E3E2F58E02F5F42170895ABE20E94C6
:10404400BD14AF850E94C014AE850E949612A1E0F3
:104054000E949612AFE30C949612AAE20E94BD1439
:10406400A0E00C94C0140E949612A0E00E94961244
:10407400AFEE0E949612C9CFD8010E94CA12439A89
:104084000895EE85FF853196EE87FF8708956627AC
:1040940077270E94B2230895ACE20E94BD14429A8D
:1040A4000895A885B9851196A887B9871197E091D5
:1040B4002303F091240309950895EA85EA93E98599
:1040C400FA853196E987FA87319766277727DF01E2
:1040D400CB010C94401E1E2FE0910403F0910503C4
:1040E400E017F1070895A0910003B091010308952A
:1040F4000E949612A0E00C9496120E94BD14A0E0B7
:104104000C94C014E1E0E0930E03EFEFE0930F038F
:104114000895E0E0EA9316CFEFEEEA93AFE3B1E05F
:104124000C944D13EC81EA93EB81FC81FA93EA93AE
:10413400F3CFA6E30E94BD14A09127030895EA8358
:10414400FB83E0910003F0910103E883F983439832
:104154000895AA85BB85E885F985EA1BFB0B0895BC
:10416400BA93AA93A881B9810E946A2408950E94EF
:104174007424E0910903F0910A030895F8010F5F94
:104184001F4F04900895E0910903F0910A030895E4
:10419400A0910703B0910803F6CF0E946616E0933E
:1041A4000703F09308030895E0910603EA93E0916E
:1041B4000703F0910803FA93EA930895EA0FEA9348
:1041C400E0910703F09108030895BA93AA931A9310
:1041D400ED81EA93AC81BD810C94F817A885B9856B
:1041E400EA0FFB1FE887F98708951A933A932A93F5
:1041F400AA850E94DB17EF8308950E94C9220E94BA
:10420400142408950E940F240895EA0FFB1FAF01A0
:10421400E985E178E1380895EA1BFB0B0F01DF0122
:10422400EC85FD85AE17BF070895EA85FB85E0158B
:10423400F10508950A93D9010C9478160A93D901CB
:1042440012970E94F814DF01EE81FF81EA17FB0741
:104254000895EC85FD85AE17BF070895EA85FB85B3
:10426400EA17FB0708950A93DA010E947816A885D5
:10427400A23008950A93DA0112960E94F814DF011D
:10428400EE81FF81EA17FB070895EA93D9010E94A2
:10429400F814DF01EE81FF81EA17FB070895EA9322
:1042A400DA010E94F814DF01EE81FF81EA17FB07AF
:1042B400089531969F01E5E0F0E0E21BF30B0E94C4
:1042C4008A230E948F23AF0110E00895EB85EA93BF
:1042D400EA85FB85FA93EA93089521503040E12F53
:1042E400F0E0E21BF30B0895EE85EA93ED85FE857D
:1042F400FA93EA930895FA93EA93EB85FC85FA938B
:10430400EA9308950E941E247DCF0E940A240895F2
:10431400FCDFA0E0B0E080E89FE30895AD81BE81BA
:104324008F8198850895ED83FE836F837887F6CF18
:10433400ED81FE816F81788508950E947222ED835C
:10434400FE836F83788708950E941E242497EC814E
:10435400FD816E817F810895AC81BD818E819F81B5
:1043640008950E94C922AEE4BFE88AE491E40E9461
:10437400792208950E941723DF01CB010C94451D77
:10438400C4DF0E94D321DF01CB010C946F1D109672
:1043940039F080EA9FE00197F1F7A8951197C9F7E2
:1043A400089530976040704009F07058089555237F
:1043B40042F4503811F4E0FF04C03196691F791FAC
:1043C4006BF050E8572711F45F93CFC05F3F31F093
:1043D400660F000C57956795752F08955F9300201D
:1043E4000AF0CFC0C8C050E8192E1522880F991FB3
:1043F4009527550F879550E8072E0522660F771FDE
:104404007527550F67950895689401C0E8945F93E4
:10441400F2DF703818F07F3F08F4A7C056E1571B4D
:10442400AAF4519558300EF4593030F0EFEFFFEF05
:104434006FEF7FE777F91AC077275523B9F0EE0FAE
:10444400FF1F661F771F5A95D1F710C07727583082
:1044540028F0EF2FF62F672F5850F9CF552331F05E
:1044640076956795F795E7955A95D1F700200AF464
:1044740045D15F910895689401C0E89430976040F5
:104484007040B1F0002426F0772312F4009436D162
:10449400172E7EE1112032F07A95EE0FFF1F661F72
:1044A400111CF9CFEF2FF62F612D5F938ADF5F91F7
:1044B40008954F93AF01FD01DA01AB01BC01CA01BC
:1044C400402D012C142E4F910895EA0FFB1F681FF5
:1044D4000895E095F0956095EF5FFF4F6F4F089555
:1044E4005F9381DF903871F150E8152604C05F9323
:1044F4007ADF903839F1703821F1572F591B2BF19D
:1045040012F4D7DFFACF583118F0AA27BB2788272F
:10451400583028F0AB2FB82F88275850F9CF55239F
:1045240029F08695B795A7955A95D9F7502D512519
:1045340072F0CBDF38F46795F795E795739513F42C
:1045440020C0B7DF3EDF5F910895D8F7FBCFEA1BA9
:10455400FB0B680B51F010F40094BBDF662392F35D
:10456400EE0FFF1F661F7A95CBF7EE27FF2766270E
:1045740077275F910895EFEFFFEF6FE77FEF5F918C
:104584000895EFEFFFEF6FE77FE75F9108955F9383
:104594002ADF703851F3903841F301240894791FCD
:1045A40023F41CF300203AF3ECCF0F921F932F93C4
:1045B4003F934F93112722279927689FA0018F9F2C
:1045C400302D410D591F6B9F300D411D591F8E9F7A
:1045D40027D0BF9F25D06A9F23D0BE9F1DD0AF9FF9
:1045E4001BD0AE9F110D291F391F491F591FE32FDF
:1045F400F42F652F522F4F913F912F911F910F90C0
:1046040066232AF0550FEE1FFF1F661F02C0739525
:104614004BF2CDDE5F910895100D211D391F02C0AC
:10462400200D311D491F591F08955F93DCDE70383A
:1046340021F411200AF49FCFA4CF903809F495CF28
:1046440001240894970B1BF4D4F30020F3CF792FA3
:104654001F932F933F934F9311241127222733271E
:104664004427552790E2AE17BF078607410730F06D
:10467400AE1BBF0B860B410B089401C08894551FD9
:10468400221F331F111CAA1FBB1F881F441F9A958A
:1046940051F7F901612D4F913F912F911F9166239D
:1046A40032F0550FEE1FFF1F661F7A9543F27FDE2F
:1046B4005F91089599239AF0772342F0971748F071
:1046C40029F4AE17BF07860720F031F09894889438
:1046D40008959894089408951894889408957723D5
:1046E400C2F7971798F3A9F7EA17FB07680788F347
:1046F40099F3ECCFF195E195F0400895F09560952C
:104704007095E195FF4F6F4F7F4F0895EE0FFF1F98
:10471400EE0FFF1FEE0FFF1F0895F595E795F59532
:10472400E7950895FE2FFF0FFF0B6F2F7F2F08953E
:104734006F2F660F660B762F08958B2F880F880BCB
:10474400982F0895EA17FB07E1E008F4EE2708958F
:10475400FA9FF02DEB9FF00DEA9FE02DF10D0895E7
:104764007A9F702D6B9F700DF89F700DE99F700DEF
:104774006A9F602D710DFB9F600D711DE89F600D98
:10478400711D8827FA9FF02D610D781FEB9FF00DA6
:10479400611D781FEA9FE02DF10D681F781F0895B1
:1047A4000024112490E1AA0FBB1F001C111C0E1A37
:1047B4001F0A18F40E0E1F1E01C0A1609A9599F7E6
:1047C400FD01D001089507D0EBDF0EF493DF0895C7
:1047D400E7DFFD010895E894F7FF02C08BDF6894DA
:1047E400B7FF06C0A095B095119600F8039400FA9F
:1047F4000895ED91FC9111970895ED91FD916D91BE
:104804007C9113970895ED93FD936D937C93089594
:10481400E881F9816A817B810895A881B9818A81BF
:104824009B810895E883F9836A837B8308957A934F
:104834006A93FA93EA9308959A938A93BA93AA93FC
:104844000895689401C0E89401D018DE182E862FCC
:10485400612D192E972F712D1B2EBF2FF12D1A2E7E
:10486400AE2FE12D0895F999FECFFF93FFB7F89489
:10487400A1BDB2BDF89AE0B5FFBFFF910895F99BC1
:1048840002C0A895FCCF9FB7F894A1BDB2BDF89A19
:1048940080B5E81719F0E0BDFA9AF99A9FBF089518
:1048A4009927EF93FF9361916D930197E1F7FF913E
:1048B400EF9108959927EF93FF9305900D92019737
:1048C400E1F7FF91EF9108953097604070400895AB
:1048D40000240A160B06089500240A160B0608067F
:1048E400090608955A934A933A932A931A930A937A
:1048F40008955D814C813B812A8119810881089545
:00000001FF
